:020000040800F2
:1000000050040020C10100080F0D0008730C000807
:100010000D0D0008CD0200080111000800000000CD
:10002000000000000000000000000000130D0008A8
:10003000CF02000800000000110D0008150D000897
:10004000DB010008DB010008DB010008DB01000820
:10005000DB010008DB010008DB010008DB01000810
:10006000DB010008DB010008DB010008DB01000800
:10007000DB010008DB010008DB010008DB010008F0
:10008000DB010008DB010008DB010008DB010008E0
:10009000DB010008DB010008DB010008DB010008D0
:1000A000DB010008DB010008DB010008DB010008C0
:1000B000DB010008DB010008DB010008DB010008B0
:1000C000DB010008DB010008DB010008DB010008A0
:1000D000DB010008DB010008DB010008DB01000890
:1000E000DB010008DB010008DB010008DB01000880
:1000F000DB010008DB010008DB010008DB01000870
:10010000DB010008DB010008DB010008DB0100085F
:10011000DB010008DB010008DB010008DB0100084F
:10012000DB010008DB010008DB010008DB0100083F
:10013000DB010008DB010008DB010008DB0100082F
:10014000DB010008DB010008DB010008DB0100081F
:10015000DB010008DB010008DB010008DB0100080F
:10016000DB010008DB010008DB010008DB010008FF
:10017000DB010008DB010008DB01000800000000D3
:10018000DB010008DB010008DB010008DB010008DF
:10019000DB010008DB010008DB010008DB010008CF
:1001A0000000000000000000DB010008DFF80CD0B8
:1001B00000F07AF800480047411100085004002080
:1001C0000648804706480047FEE7FEE7FEE7FEE7F1
:1001D000FEE7FEE7FEE7FEE7FEE7FEE79D0D00080F
:1001E000AD0100082DE9F05F0546002092469B46D0
:1001F00088460646814640241BE02846414647463D
:10020000224600F041F853465A46C01A914110D395
:1002100011461846224600F028F82D1A67EB01080F
:100220004F4622460120002100F01FF817EB00097D
:100230004E41201EA4F10104DFDC484631462A4627
:100240004346BDE8F09FD2B201E000F8012B491E01
:10025000FBD270470022F6E710B513460A46044663
:100260001946FFF7F0FF204610BD202A04DB203A94
:1002700000FA02F1002070479140C2F1200320FAF9
:1002800003F3194390407047202A04DB203A21FAF7
:1002900002F00021704721FA02F3D040C2F120029F
:1002A0009140084319467047064C074D06E0E06848
:1002B00040F0010394E8070098471034AC42F6D3AD
:1002C000FFF778FF94110008B4110008FEE77047AB
:1002D000704700002DE9F84FDFF890B100224FF091
:1002E00001084FF0030A4FF00F090BF1040E00BF95
:1002F0000B6808FA02F42340A3426ED14D68022D28
:1003000001D0122D0ED1D50800EB850CDCF8205061
:100310005607F70E09FA07F6B5430E69BE402E439D
:10032000CCF82060066855000F790AFA05FC07F042
:10033000030726EA0C06AF40374307604E68012EDC
:1003400005D0022E03D0112E01D0122E0ED18768B7
:10035000CE6827EA0C07AE403E4386604668A64357
:100360000C79C4F30014944034434460C4688E682C
:1003700024EA0C04AE402643C6604C68E4006FD506
:100380003B4C256845F480452560246822F0030530
:1003900004F480440094374C2E19D6F80848950789
:1003A0002F0F09FA07F5AC43334DA84201D10025C0
:1003B0002EE0324DA84201D1012529E0304DA8425E
:1003C00001D1022524E02F4DA84201D103251FE0D1
:1003D0002D4DA84202D104251AE041E02B4DA84240
:1003E00001D1052514E02A4DA84201D106250FE0D0
:1003F000284DA84201D107250AE0274DA84201D186
:10040000082505E0254DA84201D1092500E00A256F
:10041000BD402543C6F80858DBF800405D464E68ED
:100420009C43F60300D51C432C60DEF80040754663
:100430004E689C43B60300D51C432C600B4D083519
:100440002C684E689C43F60200D51C432C60074D77
:100450000C352C684E689C43B60200D51C432C60BA
:10046000521C102AFFF444AFBDE8F88F003C014055
:1004700044380240003001400000024000040240C5
:1004800000080240000C024000100240001402402C
:1004900000180240001C02400020024000240240DC
:1004A0000AB1816170470904FBE7000001488068D8
:1004B0007047000000000020024881680278114463
:1004C00081607047000000200B4810B5016841F4BE
:1004D00000710160016841F480610160016841F4CC
:1004E00080710160032000F061F8002000F006F840
:1004F00000F024F8002010BD003C024070B50D4D06
:1005000004464FF47A712878B1FBF0F00A49096883
:10051000B1FBF0F000F0D4FA48B9102C07D2002259
:100520002146501E00F022F800206C6070BD0120B2
:1005300070BD0000000000200C0000200A4808B533
:10054000016841F480410160006800F4804000903F
:100550000548001F016841F080510160006800F00B
:100560008050009008BD000044380240F0B40E4BAB
:100570001B680C46C3F30223C3F10705042D00D901
:100580000425191D072901D2002300E0DB1E0126E6
:1005900006FA05F1491E214099409E40761E1640FC
:1005A0003143F0BC00F0ADBD0CED00E0064900F0B9
:1005B000070208684FF6FF03184040EA0220034A8A
:1005C00010430860704700000CED00E00000FA05E1
:1005D0002DE9F0470E46050065D0DFF81481D8F804
:1005E0000000F7B200F00F00B04207D288F80070A8
:1005F000D8F8000000F00F00B04254D128683D4CFC
:10060000810712D5400703D5206840F4E0502060F0
:100610002878000703D5206840F4604020602068F7
:10062000A96820F0F000084320602878C0072DD08A
:10063000304968680839012812D0022813D00328ED
:1006400011D00968890700292DDA216821F00301FA
:1006500001432160FFF72AFF814641F2883A0EE00C
:1006600009688903EFE709688901ECE7FFF71EFFD6
:10067000A0EB0901514502D90320BDE8F0872068AD
:10068000696800F00C00B0EB810FEFD1D8F80010D2
:10069000404601F00F01B14207D90770006800F031
:1006A0000F00B04201D00120E7E72878400705D5C8
:1006B0002068E96820F4E0500843206028780007AB
:1006C00006D52068296920F4604040EAC100206016
:1006D00000F036F82168084AC1F30311515CC840A4
:1006E000064908600020FFF709FF0020C5E7000069
:1006F000003C0240083802407C1100080C00002039
:100700000448054900680968044AC1F38221515C24
:10071000C84070470C000020083802408C110008C7
:100720000448054900680968044AC1F34231515C34
:10073000C84070470C000020083802408C110008A7
:10074000154810B5006810F00C02144813D0144975
:10075000042A0FD0082A0ED10F4C241F22682368C8
:1007600002F03F025B0207D52068C0F38810A0FBAF
:10077000010106E0084610BD2168C1F38811A1FB04
:1007800000010023FFF72EFD2168C1F30141491C40
:100790004900B0FBF1F010BD083802400024F4001D
:1007A000001BB7002DE9F84F050076D02878DFF858
:1007B000F8B2BE4CC00749D0DBF800105846C1F370
:1007C0008101012908D00068C0F3810002280AD104
:1007D000201D0068400206D52068800336D5686871
:1007E0000028E2D032E06868B0F5803F10D0B0F564
:1007F000A02F206810D020F480302060206820F4E2
:10080000802020606868A0B1FFF750FE06460CE02B
:10081000206840F48030F4E740F480202060F7E75F
:10082000FFF744FE801B642873D820688003F7D547
:100830000CE0FFF73BFE064605E000BFFFF736FE83
:10084000801B6428F0D820688003F7D42878DFF86C
:10085000608280074FF000093ED5DBF80010584653
:1008600011F00C0F09D00068C0F3810002280BD1F1
:100870008D48001F0068400206D42068800715D507
:10088000E868012809D111E0E868B8B10120C8F88A
:100890000000FFF70BFE064605E002E1FFF706FE4B
:1008A000801B0228C0D820688007F7D520682969F6
:1008B00020F0F80040EAC10020600DE0C8F8009088
:1008C000FFF7F4FD064604E0FFF7F0FD801B022869
:1008D0001FD820688007F7D42878000722D5724EE9
:1008E000744869696C3671B101210160FFF7DEFD62
:1008F000074604E0FFF7DAFDC01B022809D830687C
:100900008007F7D50EE0C0F80090FFF7CFFD07464F
:1009100005E083E0FFF7CAFDC01B02287ED83068DF
:100920008007F7D42878400768D5DFF87CA1002736
:100930000AF1380ADAF80000C0000BD4DAF8001027
:1009400041F08051CAF80010DAF80000012700F0E9
:1009500080500090584E3068C00510D4306840F484
:1009600080703060FFF7A2FD009005E0FFF79EFD6C
:100970000099401A022851D83068C005F6D54A4E71
:10098000A868683601280FD00528306810D020F0FC
:1009900001003060306820F004003060A868B8B111
:1009A000FFF784FD00900FE0306840F00100F4E7AD
:1009B00040F004003060F7E7FFF778FD0099411A36
:1009C00041F28830814264D830688007F4D50EE067
:1009D000FFF76CFD009007E0FFF768FD0099411AF2
:1009E00041F28830814254D830688007F4D42FB166
:1009F000DAF8001021F08051CAF80010A869C0B3DD
:100A0000DBF80010C1F3810102294AD002284846D0
:100A100007D0C8F86000FFF749FD00E039E005465F
:100A20003AE04746C8F86000FFF740FD064604E09C
:100A3000FFF73CFD801B02282BD820688001F7D4EB
:100A4000D5E907010843A96A1C4A490802EB01419C
:100A50006A6A41EA8211084395F82C1040EA016164
:100A60001148001F016001203866FFF71FFD054691
:100A700005E014E0FFF71AFD401B022809D82068A2
:100A80008001F7D50BE000BFFFF710FD401B0228E7
:100A900002D90320BDE8F88F20688001F4D400203B
:100AA000F8E70120F6E7000008380240003802406D
:100AB00000004742800E4742007000400000FFFFE8
:100AC00010B5401EB0F1807F01D3012010BD4FF062
:100AD000E02460610F21601700F013FB0020A0618B
:100AE00007202061002010BD70B5040004D094F8E8
:100AF0003900002510B106E0012070BD84F838509F
:100B0000204600F023F8242084F839002068C168CA
:100B100021F40051C160204600F06AF920680169A3
:100B200021F4904101612068416921F02A0141616D
:100B30002068C16841F40051C160E563202084F859
:100B4000390084F83A00002070BD000010B586B06E
:100B5000044614216846FFF77DFB1449206888424B
:100B600021D11348016841F020010160006800F0C4
:100B7000200005900E481438016841F040010160E2
:100B80000068694600F0400005904FF484400090F2
:100B9000022001900120029003200390082004907D
:100BA0000448FFF797FB06B010BD00000014014099
:100BB00044380240001802402DE9F843044690F8FA
:100BC00039001F4616460D46202850D1A5B19EB1CA
:100BD00094F8380001284AD0012084F838004FF0FA
:100BE0000008C4F83C80212084F83900FFF75EFC3F
:100BF000A6848146E68426E00120BDE8F883E08CE7
:100C0000401EE084A0684B46B0F5805F4FF00002C4
:100C10004FF080012046009703D000F03FFAE8B97A
:100C20000DE000F03BFAC8B928882168C0F308003D
:100C30004860206908B16D1C05E0AD1C03E0216827
:100C400015F8010B4860E08C0028D8D14B460022F3
:100C500040212046009700F021FA08B10320CCE79C
:100C6000202084F8390084F838800020C5E702206D
:100C7000C3E7FEE770B586B014216846FFF7EAFACD
:100C800012480024016841F040010160016801F050
:100C900040010591016841F08001016000680C4E3F
:100CA00000F080004FF4FF7505902246294630463B
:100CB000FFF7F6FB01200095CDE9010469463046B7
:100CC0000394FFF707FB06B070BD00003038024008
:100CD000001802400C4810B50A4901604FF4E13198
:100CE0004160002181600C22C160C0E90412816171
:100CF000C161FFF7F9FE002803D0BDE81040FFF7FF
:100D0000E7BA10BD0014014010000020FEE7704754
:100D100070477047FFF7D0BB30B593B030216846BD
:100D2000FFF798FA14210CA8FFF794FA1948002548
:100D3000016841F080510160006800F0805011901E
:100D40001548016841F4404101600068022400F444
:100D50004040119001200090000401908001CDE9F5
:100D6000064006200890A820CDE9090404200B9035
:100D70006846FFF717FD0CA90F2081E831004FF4FA
:100D8000A0500F90E002109005210CA8FFF720FC66
:100D900013B030BD40380240007000401048016878
:100DA00041F4700101600F48016841F001010160E8
:100DB0000C4A00210832116002680B4B1A40026095
:100DC000031D0A4A1A60026822F480220260054864
:100DD0000C300160024958068039086070470000F5
:100DE00088ED00E000380240FFFFF6FE10300024DE
:100DF0002DE9F041044600680169E26821F44051A0
:100E0000114301612169A068E269084361691143E6
:100E100022680843D16849F20C6399430143D160C9
:100E200020684169A26921F4407111434161E2697E
:100E30006425B2F5004F9748974922684FF0320871
:100E40003FD08A4201D082427CD1FFF769FC00EB9F
:100E5000C00101EB001061688900B0FBF1F6FFF7FB
:100E60005FFC00EBC00101EB001061688900B0FB82
:100E7000F1F0B0FBF5F06FF01801484306EB80018C
:100E800008EB0110B0FBF5F000F0F006FFF748FCAE
:100E900000EBC00101EB001061688900B0FBF1F0CC
:100EA000B0FBF5F006EB0016FFF73AFC00EBC001D3
:100EB00001EB001061688900B0FBF1F7FFF730FC2F
:100EC000D2E08A4201D082423DD1FFF729FC00EBFB
:100ED000C00101EB001061684900B0FBF1F0B0FB0C
:100EE000F5F00601FFF71CFC00EBC00101EB001060
:100EF00061684900B0FBF1F7FFF712FC00EBC0019D
:100F000001EB001061684900B0FBF1F0B0FBF5F0B7
:100F10006FF01801484307EB800108EBC100B0FBFC
:100F2000F5F000F0F80006EB4006FFF7F9FB00EBE8
:100F3000C00101EB001061684900B0FBF1F7FFF759
:100F4000EFFB3CE055E0FFF7DBFB00EBC00101EB02
:100F5000001061684900B0FBF1F0B0FBF5F006014C
:100F6000FFF7CEFB00EBC00101EB00106168490008
:100F7000B0FBF1F7FFF7C4FB00EBC00101EB001081
:100F800061684900B0FBF1F0B0FBF5F06FF01801BB
:100F9000484307EB800108EBC100B0FBF5F000F01F
:100FA000F80006EB4006FFF7ABFB00EBC00101EBDE
:100FB000001061684900B0FBF1F7FFF7A1FB00EBFF
:100FC000C00101EB001061684900B0FBF1F0B0FB1B
:100FD000F5F06FF01801484307EB800108EBC10002
:100FE000B0FBF5F000F00700216830448860BDE8F0
:100FF000F081FFF785FB00EBC00101EB0010616899
:101000008900B0FBF1F6FFF77BFB00EBC00101EBC1
:10101000001061688900B0FBF1F0B0FBF5F06FF0F3
:101020001801484306EB800108EB0110B0FBF5F016
:1010300000F0F006FFF764FB00EBC00101EB0010CD
:1010400061688900B0FBF1F0B0FBF5F006EB00162B
:10105000FFF756FB00EBC00101EB0010616889004F
:10106000B0FBF1F7FFF74CFB00EBC00101EB001008
:1010700061688900B0FBF1F0B0FBF5F06FF018018A
:10108000484307EB800108EB0110B0FBF5F000F0DE
:101090000F00A9E700140140001001402DE9F041C4
:1010A000984617460E460446069D1DE0681C1BD058
:1010B0002DB1FFF7FBF9A0EB0800A84214D9206876
:1010C000C16821F4D071C1602068416921F001013B
:1010D0004161202084F8390084F83A00002084F827
:1010E00038000320BDE8F0812068006836EA00007F
:1010F00004D00020B842D9D00020F3E70120F9E75E
:10110000FEE70907090E002804DB00F1E02080F863
:101110000014704700F00F0000F1E02080F8141D6B
:10112000704702E008C8121F08C1002AFAD17047B0
:101130007047002001E001C1121F002AFBD1704757
:10114000FFF7C2F9FFF7E8FDFFF794FDFFF7C2FDD7
:101150006423112202A10848FFF72EFDF8E70000E2
:1011600074686973206973206120757365727420D7
:1011700074657374210A0000100000200000000054
:101180000000000001020304060708090000000037
:1011900001020304B4110008000000201000000048
:1011A00022110008C41100081000002040040000B3
:1011B00032110008010000001000000000000000D3
:0411C0000024F40013
:04000005080001AD41
:00000001FF
